:100000000C942A000C943C000C943C000C943C0092
:100010000C943C000C943C000C943C000C943C0070
:100020000C943C000C943C000C943C000C943C0060
:100030000C943C000C943C000C943C000C943C0050
:100040000C943C000C943C000C943C000C943C0040
:100050000C943C0011241FBECFE5D8E0DEBFCDBF1D
:1000600010E0A0E6B0E001C01D92A836B107E1F7AC
:100070000E946E000C94DA000C94000086B1866039
:1000800086B93E9A379A369A089597B1907F97B974
:1000900097B1892B87B9369A3699FECF24B135B1FD
:1000A000822F932F089510BC83E389B988E18AB920
:1000B00086E080BD08955D9BFECF8CB90895CF93F7
:1000C000DF93EC018881882331F021960E945B0048
:1000D00089918823D9F7DF91CF910895CF93DF934A
:1000E0000E943E000E945300C3E6D0E080E00E94E0
:1000F00045009093620080936100BE014AE050E0A9
:100100000E949500CE010E945F008FEF94E3ACE067
:1001100081509040A040E1F700C000008DE00E94B7
:100120005B008AE00E945B00E1CFFB019F01E89445
:100130004230C4F04532B4F44A3029F497FB1EF43F
:10014000909581959F4F642F77270E94C600805D10
:100150008A330CF0895D8193CB010097A1F716F4E7
:100160005DE251931082C9010C94B600DC01FC01E0
:10017000672F71917723E1F7329704C07C916D93DB
:1001800070836291AE17BF07C8F30895AA1BBB1B0B
:1001900051E107C0AA1FBB1FA617B70710F0A61B87
:1001A000B70B881F991F5A95A9F780959095BC01A8
:0801B000CD010895F894FFCF82
:00000001FF
